:020000040800F2
:1000000070070020C1010008DF0C0008310B000858
:10001000DD0C00080103000899140008000000002E
:100020000000000000000000000000003314000881
:100030000303000800000000311400083514000814
:10004000DB010008DB010008DB010008DB01000820
:10005000DB010008DB010008DB010008DB01000810
:10006000DB010008DB010008DB010008DB01000800
:10007000DB010008DB010008DB010008DB010008F0
:10008000DB010008DB010008DB010008DB010008E0
:10009000DB010008DB010008DB010008DB010008D0
:1000A000DB010008DB010008DB010008DB010008C0
:1000B000DB010008DB010008DB010008DB010008B0
:1000C000DB010008DB010008DB010008DB010008A0
:1000D000DB010008DB010008DB010008DB01000890
:1000E000DB010008DB010008DB01000800F002F87A
:1000F00000F03CF80AA090E8000C82448344AAF186
:100100000107DA4501D100F031F8AFF2090EBAE883
:100110000F0013F0010F18BFFB1A43F0010318473B
:100120009C260000BC260000103A24BF78C878C185
:10013000FAD8520724BF30C830C144BF04680C60ED
:10014000704700000023002400250026103A28BF35
:1001500078C1FBD8520728BF30C148BF0B60704739
:100160001FB500F062F81FBD10B510BD00F090F88B
:100170001146FFF7F5FF01F0B5F900F0AEF803B452
:10018000FFF7F2FF03BC00F0B5F800000B49D1F80F
:1001900000C04A685CF8043B1068184442F8040B3D
:1001A0008C4528BFA1F1DC0C8A4228BFA1F1DC02FA
:1001B000C1F800C04A6020F00040704704010020F0
:1001C0000948804709480047FEE7FEE7FEE7FEE7EB
:1001D000FEE7FEE7FEE7FEE7FEE7FEE70448054927
:1001E000054A064B7047000097140008ED00000810
:1001F00070010020700700207003002070030020B1
:100200000B4910B5A1F17C020A4CC2E93712372123
:1002100006E000EB104342F82130074B00FB03409F
:100220000B1EA1F10101F4DC10BD0120E8E7000084
:10023000A4000020E119D666CD0D01004FF00002A8
:1002400000B5134694469646203922BFA0E80C50CC
:10025000A0E80C50B1F12001BFF4F7AF090728BFA7
:10026000A0E80C5048BF0CC05DF804EB890028BF23
:1002700040F8042B08BF704748BF20F8022B11F04C
:10028000804F18BF00F8012B7047704770477047C8
:10029000754600F029F8AE4605006946534620F041
:1002A0000700854618B020B5FFF798FFBDE820404D
:1002B0004FF000064FF000074FF000084FF0000B22
:1002C00021F00701AC46ACE8C009ACE8C009ACE8D5
:1002D000C009ACE8C0098D4670470446AFF3008002
:1002E0002046FFF74CFF0000004870470C0100203B
:1002F0007047000001491820ABBEFEE7260002004F
:10030000FEE77047002806D041F663021146491EF9
:10031000FDD1401EFAD1704770B5044600F008F9CF
:100320000546601C02D004480078044400F000F93F
:10033000401BA042FAD370BD180000202DE9F84FF1
:10034000DFF8B891002409F1040A0AF1040B2346EE
:100350000F270BF1040EC9E00125A5402A40AA424F
:100360007DD1674ED1F804C0ACEB0608B44532D05D
:1003700014DCBCF1030F3AD009DCBCF1000F2AD029
:10038000BCF1010F1CD0BCF1020F31D11DE0BCF15A
:10039000110F17D0BCF1120F2AD119E0B8F5881F40
:1003A00019D006DCB8F5803F15D0B8F5801F1FD1F5
:1003B00011E0B8F5001F0ED0B8F5041F18D10AE0FF
:1003C000CB6815E0CB681B1D12E0CB6808330FE04B
:1003D000CB680C330CE08B682BB1012B4FF008037A
:1003E00003D0456104E0042302E0056100E000233E
:1003F000FF2A01D8064601E000F104064FEA840511
:1004000001D9A5F12005D6F8008007FA05FC28EAF5
:100410000C0803FA05F548EA0508C6F800804D689F
:10042000ED0062D5374DAE6946F00106AE61AD69AB
:1004300024F0030605F001050095334D06EB050C8D
:10044000DCF80850A607360F07FA06F825EA080573
:10045000DFF8B880404503D14FF0000817E044E0D2
:10046000DFF8AC80404502D14FF001080FE0DFF823
:10047000A480404502D14FF0020808E0DFF89880E0
:10048000404502D14FF0030801E04FF0040808FA9C
:1004900006F848EA0508CCF808804D68D9F80060ED
:1004A000ED034D4601D5164300E096432E604D689E
:1004B000DAF80060AD03554601D5164300E09643D7
:1004C0002E604D68DBF80060ED025D4601D51643F5
:1004D00000E096432E604D68DEF80060AD02754680
:1004E00001D5164300E096432E60641C0D682A4631
:1004F000E5407FF431AFBDE8F88F00000004014013
:1005000000001110001002400000014000080140EE
:10051000000C0140001001400014014080680840B8
:1005200000D0012070470AB1016170470904FBE760
:100530000148806870470000180000200248816868
:10054000027811448160704718000020074810B5F8
:10055000016841F010010160032000F067F80F20EE
:1005600000F006F800F024F8002010BD0020024042
:1005700070B50D4D04464FF47A712878B1FBF0F058
:100580000A490968B1FBF0F000F0BEFA48B9102C36
:1005900007D200222146501E00F028F800206C608F
:1005A00070BD012070BD0000180000202400002054
:1005B0000C4808B5816941F001018161816901F050
:1005C00001010091C16941F08051C161C06900F031
:1005D000805000900448416821F0E06141F00071D2
:1005E000416008BD0010024000000140F0B40E4B15
:1005F0001B680C46C3F30223C3F10705042D00D981
:100600000425191D072901D2002300E0DB1E012665
:1006100006FA05F1491E214099409E40761E16407B
:100620003143F0BC00F039BF0CED00E0064900F0AA
:10063000070208684FF6FF03184040EA0220034A09
:1006400010430860704700000CED00E00000FA0560
:100650002DE9F0470F46050061D0434E306800F0A9
:100660000700B84209D2306820F0070038433060F4
:10067000306800F00700B84251D128683B4C810730
:1006800012D5400703D5606840F4E06060602878C8
:10069000000703D5606840F4605060606068A96836
:1006A00020F0F000084360602878C00728D0686810
:1006B000012810D02168022810D0890700292EDADD
:1006C000616821F0030101436160FFF731FF80465B
:1006D00041F288390DE021688903EFE78901EDE7F0
:1006E000FFF726FFA0EB0801494502D90320BDE82A
:1006F000F0876068696800F00C00B0EB810FEFD103
:10070000306800F00700B8420BD9306820F00700CD
:1007100038433060306800F00700B84201D0012053
:10072000E5E72878400705D56068E96820F4E060CF
:10073000084360602878000706D56068296920F4BE
:10074000605040EAC100606000F018F86168084A33
:10075000C1F30311515CC8400649086006480068AF
:10076000FFF706FF0020C2E7002002400010024011
:10077000A9270008240000201C00002012A185B039
:100780000FC98DE80F0014A0144A00680490516846
:10079000134801F00C03042B10D0082B0ED1C1F329
:1007A0008343C9031DF803000AD5516804AAC1F3A5
:1007B0004041515C0A4A5043B0FBF1F005B070472C
:1007C00008494843FAE70000020304050607080940
:1007D0000A0B0C0D0E0F1010010200000010024059
:1007E00000127A0000093D002DE9F84F040070D096
:1007F0002078C04DC00749D06868C0F38100012847
:1008000007D06868C0F38100022809D16868C00376
:1008100006D52868800339D560680028E7D035E020
:100820006068B0F5803F0BD010B1B0F5A02F11D0AB
:10083000286820F480302860286820F4802002E0B6
:10084000286840F480302860606890B1FFF770FE3F
:1008500006460AE0286840F480202860F0E700BFE0
:10086000FFF766FE801B642873D828688003F7D5DD
:100870000CE0FFF75DFE064605E000BFFFF758FEFF
:10088000801B6428F0D828688003F7D420789A4E1B
:1008900080074FF001094FF0000839D5686810F063
:1008A0000C0F07D06868C0F38100022809D168687E
:1008B000C00306D42868800714D52069012808D110
:1008C00010E02069B0B1C6F80090FFF731FE07468E
:1008D00005E00AE1FFF72CFEC01B0228C4D82868F7
:1008E0008007F7D52868616920F0F80040EAC10068
:1008F00028600DE0C6F80080FFF71AFE074604E006
:10090000FFF716FEC01B022823D828688007F7D4FB
:10091000207800072CD57948A169D9B1C0F800909A
:10092000FFF706FE074604E0FFF702FEC01B0228A1
:100930000FD8686A8007F7D571484FF4FA510068FC
:10094000B0FBF1F0009000BF0098411E0091FAD278
:100950000EE080E0C0F80080FFF7EAFD074604E003
:10096000FFF7E6FDC01B022875D8686A8007F7D438
:100970002078400760D5E8690027C00008D4E869FE
:1009800040F08050E861E869012700F08050009055
:100990005C480168C90513D40168834641F480713D
:1009A0000160FFF7C5FD824606E000BFFFF7C0FD0E
:1009B000A0EB0A0064284ED8DBF80000C005F5D58E
:1009C000E06801280AD008B1052813D0286A20F071
:1009D00001002862286A20F0040002E0286A40F042
:1009E00001002862E06841F2883B98B1FFF7A0FD62
:1009F00082460BE0286A40F004002862EEE700BF60
:100A0000FFF796FDA0EB0A0159455AD8286A8007DE
:100A1000F6D50CE0FFF78CFD824605E0FFF788FD78
:100A2000A0EB0A0159454CD8286A8007F6D41FB1BB
:100A3000E86920F08050E861E06988B36968C1F333
:100A40008101022944D00228C6F8608004D0FFF753
:100A50006FFD044638E034E0FFF76AFD074604E026
:100A6000FFF766FDC01B02282BD828688001F7D449
:100A7000206AB0F5803F05D16868A16820F4003095
:100A800008436860D4E908010843696821F47411D7
:100A900008436860C6F86090FFF74AFD044606E028
:100AA00025E000BFFFF744FD001B022809D8286895
:100AB0008001F7D51BE000BFFFF73AFD001B0228BD
:100AC00002D90320BDE8F88F28688001F4D40EE035
:100AD0000128F7D06868226A00F48031914204D17D
:100AE000616A00F47010884201D00120EAE700201A
:100AF000E8E7000000100240000042428004424249
:100B0000240000200070004010B5401EB0F1807F2E
:100B100001D3012010BD4FF0E02460610F21601768
:100B200000F0BBFC0020A06107202061002010BD68
:100B3000FEE7000010B50B4C012208212046FFF70C
:100B4000F2FC012210212046FFF7EDFC00221021CB
:100B50002046FFF7E8FC20460022BDE810400821AF
:100B6000FFF7E1BC000C014010B5094C012208213F
:100B70002046FFF7D8FC002210212046FFF7D3FCC7
:100B800020460122BDE810401021FFF7CCBC000038
:100B9000000C014010B5064C012208212046FFF749
:100BA000C2FC20460022BDE810400821FFF7BBBC74
:100BB000000C014070B5124E044600220821304658
:100BC000FFF7B1FC5FF0000504F08000802815D02D
:100BD000002210213046FFF7A6FC6006040E012219
:100BE00008213046FFF79FFC002208213046FFF71E
:100BF0009AFC6D1CEDB2082DE6D370BD0122E8E72A
:100C0000000C014010B50446FFF794FF7820FFF771
:100C1000D1FFFFF7BFFF0020FFF7CCFFFFF7BAFFC0
:100C20002046FFF7C7FFFFF7B5FFBDE81040FFF70D
:100C30009BBF10B50446FFF77DFF7820FFF7BAFF92
:100C4000FFF7A8FF4020FFF7B5FFFFF7A3FF2046FF
:100C5000FFF7B0FFFFF79EFFBDE81040FFF784BF2E
:100C600070B586B000241B4800940194029403944C
:100C7000816941F020018161816901F020010491C5
:100C8000816941F008018161816901F008010491E5
:100C9000816941F00401816180690F4E00F0040018
:100CA0000490002218213046FFF73DFC0325CDE9D2
:100CB00000540124694630460294FFF73FFB182098
:100CC000CDE9000469463046CDE90245FFF736FB21
:100CD00006B070BD00100240000C0140FEE7FEE7C8
:100CE00070B50024002104F1B00000F09BFB00214E
:100CF000084600F097FB0021102000F093FB002530
:100D00000121002000F08EFB6D1CEDB2802DF7D389
:100D1000641CE4B2082CE5D370BD2DE9F041002637
:100D2000074634462146002000F0D2FAFFF702FFC2
:100D30007820FFF73FFFFFF72DFF4020FFF73AFF36
:100D4000FFF728FF0025B85D761CFFF733FFFFF79C
:100D500021FF6D1CEDB2802DF5D3FFF705FF641C5C
:100D6000E4B2082CDED3BDE8F08100002DE9F05F8D
:100D700005464FF000093A484FF005084F46012953
:100D800007D085B1012D10D0022D10D0032D0ED02B
:100D90000EE08021016142460621002000F04AFC5D
:100DA0008020BDE8F09F082702E0102700E0182708
:100DB00000248246DAF81000002805DAC0F10009A4
:100DC000A01DC1B2002002E0A11DC9B2C0B200F056
:100DD0007FFAFFF7AFFE7820FFF7ECFEFFF7DAFEB1
:100DE0004020FFF7E7FEFFF7D5FE09F0FF06DFF82A
:100DF00074B015E0DAF8100030447F2812DC04FBF0
:100E000007601DB3012D24D0022D25D01549603176
:100E100011F80000FFF7CEFEFFF7BCFE761CF6B21D
:100E2000BE42E7DBFFF7A0FE641CE4B2022CC1D394
:100E3000DAF81000544638444246062100F0FAFB26
:100E40002169A1EB080020614044AAE71BF80000DB
:100E5000E0E704491031DBE702493031D8E7000010
:100E600000000020D12200082DE9F047274C03267E
:100E70000025A0681827183010F1030F09DC802026
:100E8000A060FFF783F9032190FBF1F201FB120050
:100E90002070A068002805DA45422078401CC1B2C5
:100EA000002003E02178C0B2491CC9B200F010FA5A
:100EB000FFF740FE7820FFF77DFEFFF76BFE402036
:100EC000FFF778FEFFF766FEA046DFF84490BC19F6
:100ED00010E000BFD8F8080028447F280CDCBD4291
:100EE00002DA19F8050000E00020FFF763FEFFF7C3
:100EF00051FE6D1CAC42EDDCFFF736FED8F8081051
:100F0000891BC8F80810BDE8F08700000000002029
:100F1000F92000080148FFF700BF0000A9230008DE
:100F20002DE9F041174E184F7078401C00F0010079
:100F300070700024A01DC1B2102000F0C9F9FFF7A5
:100F4000F9FD7820FFF736FEFFF724FE4020FFF77B
:100F500031FEFFF71FFE0025717805EB041007EB4B
:100F60004111085CFFF726FEFFF714FE6D1CEDB281
:100F7000102DF1D3FFF7F8FD641CE4B2022CD9D395
:100F8000BDE8F08100000020112100082DE9FE439A
:100F900046A300260ECB8DE80E000823464D3146B1
:100FA000012808D02846EF78426980786C4647B11E
:100FB000012F0CD014E06961E970AB700020BDE82E
:100FC000FE83235C401E1A446A61A87008E0245C1A
:100FD000401C121BC0B26A61A870082800D9AB700F
:100FE00068691F2804DB0120E8701F20686110E099
:100FF000002802DCE97069610EE007280CDD0F288B
:1010000001DC012608E0172801DC022604E01F2885
:1010100001DC032600E00426DFF8A0800024C6F1EE
:10102000050900BF09EB0400C1B2102000F050F91F
:10103000FFF780FD7820FFF7BDFDFFF7ABFD4020F7
:10104000FFF7B8FDFFF7A6FD5FF00007686907EB43
:101050000411C21700EB527222F00702801A00EB53
:10106000400208EB0210405CFFF7A4FDFFF792FD81
:101070007F1CFFB2102FE9D3FFF776FD641CE4B2AA
:10108000032CCFD3E87828B91022C6F10801104606
:1010900000F0D0FAE878012805D11022C6F1040149
:1010A000104600F0C7FA686989E7000001010303F0
:1010B000040405060700000000000020512100087C
:1010C0002DE9F041052640F255270721002000F0C8
:1010D000FFF8FFF72FFD7820FFF76CFDFFF75AFDB3
:1010E0004020FFF767FDFFF755FD0D4DDFF8348019
:1010F000002468682044B0FBF7F107FB110118F8E1
:101100000100FFF757FDFFF745FD641CE4B2802C9A
:10111000EFD3FFF729FD686830446860BDE8F081CF
:1011200000000020A41E00082DE9F0410026184F01
:1011300002242146342000F0CBF8FFF7FBFC782096
:10114000FFF738FDFFF726FD4020FFF733FDFFF7DF
:1011500021FD0025B85D761CFFF72CFDFFF71AFD79
:101160006D1CEDB2182DF5D3FFF7FEFC641CE4B244
:10117000052CDED3102307A203210A2000F037F943
:10118000BDE8F0411023032104A2562000F02FB93E
:101190006123000847414D45000000004F5645526D
:1011A0000000000070B506460024002104F1B000E4
:1011B00000F038F90021084600F034F90021102031
:1011C00000F030F900250121304600F02BF96D1CAC
:1011D000EDB2802DF7D3641CE4B2082CE5D370BDCA
:1011E00010B51420FFF78EF80021AE2000F01AF998
:1011F0000021084600F016F90021102000F012F935
:101200000021402000F00EF90021B02000F00AF982
:101210000021812000F006F90021FF2000F002F9F2
:101220000021A12000F0FEF80021A62000F0FAF82D
:101230000021A82000F0F6F800213F2000F0F2F88D
:101240000021C82000F0EEF80021D32000F0EAF8D9
:101250000021084600F0E6F80021D52000F0E2F871
:101260000021802000F0DEF80021D82000F0DAF81C
:101270000021052000F0D6F80021D92000F0D2F896
:101280000021F12000F0CEF80021DA2000F0CAF8A9
:101290000021122000F0C6F80021DB2000F0C2F887
:1012A0000021302000F0BEF800218D2000F0BAF8B7
:1012B0000021142000F0B6F80021AF2000F0B2F8B1
:1012C0001420FFF71FF8BDE810400020FFF76ABFA9
:1012D00010B50A460446002102F1B00000F0A2F861
:1012E000102040EA1410002100F09CF804F00F00D8
:1012F000BDE81040002100F095B800002DE9F04154
:10130000203A00240D468046D6B27F2803D900201B
:101310008D1C8046EDB2102B294610D0FFF7D8FF68
:10132000164906EB460001EB40050121285D00F05F
:1013300079F8641CE4B2062CF7D3BDE8F081FFF71E
:10134000C7FF0F4F04EB06100121385C00F06AF86C
:10135000641CE4B2082CF5D36D1CE9B24046FFF7DB
:10136000B7FF002404EB061038440121007A00F096
:1013700059F8641CE4B2082CF4D3DEE78C1600089C
:10138000B41800082DE9F05F0026DDF828901D460E
:1013900092468B46804634464FEA590723E0281B85
:1013A000401EC1B20A2000F069F9BAFBF0F00A2130
:1013B000B0FBF1F201FB120026B9691E8C4201DA82
:1013C00038B101263030C2B207FB0480C0B24B46B0
:1013D00004E007FB0480C0B24B4630225946FFF7B9
:1013E0008DFF641CE4B2AC42D9D3BDE8F09F2DE977
:1013F000F041984617460E46044600250DE0434648
:1014000031462046FFF77AFF0834E4B2782C02D93F
:101410000024B61CF6B26D1CEDB27A5D002AEED146
:10142000BDE8F081C0B209B1FFF703BCFFF7EABB2A
:1014300070477047FFF782B830B58FB028216846F3
:10144000FEF7FCFE14210AA8FEF7F8FE01210804AD
:10145000CDE900100024029402250491CDE9075043
:101460004FF4E01009906846FFF7BEF908B172B674
:10147000FEE70F20CDE90A054FF48060CDE90C406E
:1014800002210AA80E94FFF7E3F8002801D072B6F3
:10149000FEE70FB030BD7047FEE70907090E0028D0
:1014A00004DB00F1E02080F80014704700F00F002A
:1014B00000F1E02080F8141D7047000010B5084CC2
:1014C00001212046FFF72AF830B102212046FFF71C
:1014D00025F818B1002010BD022010BD012010BD5C
:1014E000000C0140002608B5B1463446B2463546E8
:1014F0003746B046FFF72AF8FFF79EFFFFF7B0FB2D
:10150000FFF76EFE0021042347A20846FFF76FFF96
:10151000FFF700FDFFF7D2FF0228FBD16420FEF7A2
:10152000FBFEFFF7DDFB4FF00C0B16E0FFF7FCFDB9
:10153000FFF7C4FFC6B2022EF8D1544500D9A24627
:1015400000240120274625468046FFF71FFD41461F
:101550004846FFF70BFCFFF7C3FB641C002D02DCC1
:10156000FFF7ACFFC6B2FFF7ABFDFFF77DFC002D28
:1015700051DC012E4FD0FFF7D3FC41464846FFF720
:10158000F5FB0646B9F1000F4AD0B9F1010F49D079
:10159000182030445FEA00080CD5FEF7F7FDC117AC
:1015A00000EB917121F00301401AC0B28146012184
:1015B000FFF7DCFB102D07DA103E102E03D9A8F13F
:1015C0001000102800D801270C2319A20021232085
:1015D000FFF70DFF5E460523524600213A20CDF865
:1015E00000B0FFF7CFFE05232246002162200096BF
:1015F000FFF7C8FE1420B4FBF0F0C0B24FF00008B3
:101600001D2800D91D20C0F11E00FEF785FE002612
:10161000012FA2D18AE74046FFF7B8FC0546ACE7A8
:101620000820B6E71020B4E754657374000000008A
:1016300048493A0070B505461646C9B2C0B2FFF730
:1016400047FEFFF777FA7820FFF7B4FAFFF7A2FA20
:101650004020FFF7AFFAFFF79DFA002408E02819B1
:10166000802807D80020FFF7A5FAFFF793FA641C3B
:10167000B442F4D3BDE87040FFF776BA02460120C9
:1016800000E05043491EC9B2FBD270470000000081
:1016900000000000002F00000000070007000014F9
:1016A0007F147F1400242A7F2A1200626408132307
:1016B00000364955225000000503000000001C229E
:1016C0004100000041221C000014083E08140008DC
:1016D000083E0808000000A060000008080808088C
:1016E000000060600000002010080402003E514924
:1016F000453E0000427F40000042615149460021C2
:1017000041454B31001814127F10002745454539DB
:10171000003C4A4949300001710905030036494936
:10172000493600064949291E0000363600000000EF
:10173000563600000008142241000014141414143A
:1017400000004122140800020151090600324959E3
:10175000513E007C1211127C007F49494936003EFF
:1017600041414122007F4141221C007F49494941BA
:10177000007F09090901003E4149497A007F0808B4
:10178000087F0000417F4100002040413F01007F71
:1017900008142241007F40404040007F020C027F3D
:1017A000007F0408107F003E4141413E007F09094F
:1017B0000906003E4151215E007F09192946004675
:1017C000494949310001017F0101003F4040403F4C
:1017D000001F2040201F003F4038403F0063140896
:1017E0001463000708700807006151494543000071
:1017F0007F41410000552A552A55000041417F0094
:101800000004020102040040404040400000010288
:101810000400002054545478007F48444438003871
:101820004444442000384444487F003854545418F9
:1018300000087E0901020018A4A4A47C007F08040B
:1018400004780000447D4000004080847D00007FDB
:10185000102844000000417F4000007C04180478F8
:10186000007C0804047800384444443800FC2424F4
:1018700024180018242418FC007C080404080048DC
:101880005454542000043F444020003C4040207CFD
:10189000001C2040201C003C4030403C00442810EC
:1018A0002844001CA0A0A07C004464544C441414A0
:1018B00014141414000000000000000000000000D8
:1018C00000000000000000F80000000000000033ED
:1018D0003000000000100C06100C06000000000094
:1018E0000000000040C07840C0784000043F04047D
:1018F0003F040400007088FC08300000001820FF3E
:10190000211E0000F008F000E018000000211C0378
:101910001E211E0000F00888700000001E212324F4
:101920001927211010160E00000000000000000012
:1019300000000000000000E01804020000000007A2
:101940001820400000020418E000000000402018A9
:1019500007000000404080F0804040000202010F7C
:1019600001020200000000F0000000000101011F60
:1019700001010100000000000000000080B07000C4
:101980000000000000000000000000000001010154
:1019900001010101000000000000000000303000E3
:1019A00000000000000000008060180400601806BD
:1019B0000100000000E010080810E000000F1020F7
:1019C00020100F00001010F8000000000020203F41
:1019D00020200000007008080888700000302824CB
:1019E000222130000030088888483000001820206C
:1019F00020110E000000C02010F800000007042491
:101A0000243F240000F808888808080000192120D5
:101A100020110E0000E0108888180000000F11202F
:101A200020110E0000380808C83808000000003FE8
:101A3000000000000070880808887000001C222147
:101A400021221C0000E010080810E00000003122F4
:101A500022110F00000000C0C00000000000003094
:101A600030000000000000800000000000008060E6
:101A70000000000000008040201008000001020467
:101A8000081020004040404040404000040404044E
:101A9000040404000008102040800000002010080A
:101AA00004020100007048080808F000000000303F
:101AB00036010000C030C828E810E00007182724CD
:101AC00023140B000000C038E0000000203C23027B
:101AD0000227382008F8888888700000203F2020DE
:101AE00020110E00C0300808080838000718202010
:101AF0002010080008F808080810E000203F202007
:101B000020100F0008F88888E8081000203F2020E7
:101B10002320180008F88888E8081000203F2000DB
:101B200003000000C0300808083800000718202013
:101B3000221E020008F808000008F808203F2101D2
:101B400001213F20000808F8080800000020203F7D
:101B50002020000000000808F8080800C0808080ED
:101B60007F00000008F888C028180800203F2001E6
:101B70002638200008F8080000000000203F202040
:101B80002020300008F8F800F8F80800203F003F57
:101B9000003F200008F830C00008F808203F20006F
:101BA00007183F00E01008080810E0000F10202080
:101BB00020100F0008F808080808F000203F210155
:101BC00001010000E01008080810E0000F182424AC
:101BD00038504F0008F8888888887000203F20001F
:101BE000030C3020007088080808380000382021D5
:101BF00021221C00180808F8080818000000203FDF
:101C00002000000008F808000008F808001F202045
:101C100020201F000878880000C838080000073816
:101C20000E010000F80800F80008F800033C070067
:101C3000073C0300081868808068180820302C03CF
:101C4000032C30200838C800C83808000000203FA6
:101C50002000000010080808C83808002038262195
:101C600020201800000000FE020202000000007F99
:101C700040404000000C30C00000000000000001A7
:101C80000638C00000020202FE0000000040404092
:101C90007F000000000004020202040000000000B7
:101CA0000000000000000000000000008080808034
:101CB000808080800002020400000000000000001C
:101CC00000000000000080808080000000192422B5
:101CD00022223F2008F8008080000000003F1120F1
:101CE00020110E000000008080800000000E1120F6
:101CF00020201100000000808088F800000E1120D4
:101D000020103F200000808080800000001F2222E1
:101D100022221300008080F0888888180020203F4D
:101D2000202000000000808080808000006B949460
:101D30009493600008F8008080800000203F21001C
:101D400000203F2000809898000000000020203FE5
:101D500020200000000000809898000000C08080D3
:101D6000807F000008F8000080808000203F24026F
:101D70002D302000000808F8000000000020203F5F
:101D8000202000008080808080808000203F200014
:101D90003F20003F8080008080800000203F2100A5
:101DA00000203F200000808080800000001F202055
:101DB00020201F00808000808000000080FFA12084
:101DC00020110E000000008080808000000E112095
:101DD00020A0FF80808080008080800020203F2124
:101DE00020000100000080808080800000332424D7
:101DF00024241900008080E0808000000000001F83
:101E0000202000008080000000808000001F202033
:101E100020103F20808080000080808000010E30F4
:101E20000806010080800080008080800F300C0355
:101E30000C300F0000808000808080000020312E58
:101E40000E312000808080000080808080818E7034
:101E50001806010000808080808080000021302CE6
:101E60002221300000000000807C020200000000FF
:101E7000003F404000000000FF00000000000000A4
:101E8000FF0000000002027C800000000040403F94
:101E9000000000000006010102020404000000002E
:101EA00000000000C8C8C828282808C8C8080808B2
:101EB000080808080808080808480808C8C8C80822
:101EC0003838080808080848480808080808082892
:101ED0000848484808080828280808080808080882
:101EE00008C8080808080808084808080808080872
:101EF00038380808080808080808080808480828A2
:101F000028084848080808080808080808080808B1
:101F10002808080808383808680808080808082841
:101F20000808080808080848084848080808080871
:101F30000848480808080808080868080808080841
:101F4000080808080828080808080808C8C8080970
:101F50000808080808383808082808090808080880
:101F600008080828280808080908080808080808B0
:101F700008686808C9C8C8080808C8080808082800
:101F8000290808080808080808080808484908082F
:101F900008080808080808080868680808282808C1
:101FA00008080808080868680808C8C80808080871
:101FB00008080808282808280808080808282828E1
:101FC00008084808383808080808C8080808080831
:101FD000C8C8C828282808C8C80808080808080861
:101FE0000808080848480808C8C8C8083838080851
:101FF00008080848480808080808282808484848E1
:1020000008080828280808080808080808C8080850
:10201000080C06024242060C08080808383808185E
:1020200018101010101018180848082828084848D8
:1020300008080808080808080808082828080808E0
:1020400008383868680808080808082808080808D0
:1020500008080848084848080808080808484808C0
:102060000808080808686808080808080808080830
:1020700028280808080808C8C8C808080808080860
:1020800028383808082808080808080808082828F0
:1020900028080808080808080808080808686808E0
:1020A000C8C8C8080808C808080808282808080870
:1020B000080C04060202060C4C480808080C04062A
:1020C0000202060C0C686808282828080808080876
:1020D000086868680808C8C80808080808080808E0
:1020E0002828282808080808082828280808482830
:1020F000383808080808C8080880C0E070B0B0B0D8
:1021000098888E8383838181938E8C888898B0F0A1
:10211000C0E08000000080C0E0FEFFFDBFAF2F2FB9
:102120000E03070F1EFFBF1F1F3F2F0700010000F8
:1021300000E08000000080C0E0FEFFFDBFAF2F2F59
:102140000E03070F1E3F7F5F3FFF8F070001000058
:10215000000000000000000000000000000000007F
:1021600000E08000000080C0C0FEFFFDBFAF2F2F49
:102170000E03070F1FFFBF1F3FFF8F070001000067
:10218000000000000000000000008080808080804F
:1021900000F0C0808080C0E0E0FFFFFE5FD717172F
:1021A000070103070F7F5F0F1F7F47030000000039
:1021B00000000000000000000080C040C0C0C0C09F
:1021C00080F8E0C0C0C0E0F0F0FFFFFF2F6B0B0B0A
:1021D00003000103073F2F070F3F2301000000000A
:1021E000000000000000000000C0E0A0E0E0E0E02F
:1021F000C07CF0E0E0E0F0F8F8FFFFFF17350505E0
:1022000001000001031F1703071F11000000000059
:10221000000000000000000000E0F0D0F0F0F0F05E
:10222000E03E78F0F0F0F8FCFCFFFF7F0B1A0202B2
:1022300000000000010F0B01030F08000000000068
:10224000000000000000000000F0F8E8F87878785E
:10225000701F3C78F8F8FCFEFEFF7F3F050D010182
:102260000000000000070500010704000000000056
:10227000008000000000000000F8FCF4FCBCBCBCC6
:10228000380F1E3C7CFCFE7FFFFF3F1F0206000054
:102290000000000000030200000302000000000034
:1022A00000C000000000008080FCFEFA7E5E5E5EE2
:1022B0001C070F1E3EFE7F3F7FFF1F0F0103000024
:1022C000000000000001010000010100000000000A
:1022D00000F0F000FFFF00F0F0030786FFFF0603A9
:1022E00001F0E000FFFE80FC00007CC0FEFF0080EB
:1022F000FC030706FFFF011090909000FFFF03030F
:1023000001F0E000FFFE80FC00FCFE00FFFF00F893
:10231000F000FE80FEFFFE78FC131706FFFF0110A1
:1023200010133704FFFF080F17101001FFFF0313EE
:1023300011F0E000FFFE00F000C000FFFE603C80F6
:1023400000007CC0FEFF00F0F8434786FFFF26A395
:10235000A02704FFFF0008FF882F0000FFFF0623CF
:1023600021FCFFFFFFFFFF3F3F3F3F0F1F3FFFFFEE
:10237000FF3F3FFFFFFFFFFFFCFFFFFFFFFF0000EE
:102380007E7E7E787C7E7F7F7F7E0000FFFFFFFF6A
:10239000FF3FFFFFFFFFFFFCFCFCFCFCFCFCFCFC28
:1023A000FCFCFCFFFFFFFFFF3F00000000000000FF
:1023B00000E0F0303030300000F0F0C0C0F0F0004D
:1023C00000F0F0B0B070600000E0F03030F0E000FD
:1023D00000F0F030F0F030F0E000E0E0909090900D
:1023E000900000000000000000000000000000005D
:1023F00000000000000000000080800000000000DD
:1024000000000000000000000000000000000000CC
:1024100000000000000000000000000000000000BC
:1024200000000000000000000000000000000000AC
:1024300000F3F73636F6E600F0F707C1C13737F09C
:10244000C007C7E0303737E0C0030706F6F7B3B080
:10245000B0F7E700F7F70007F7F003E3F43434F4DC
:10246000E400000000000000000000000000000088
:1024700010100C0414141211111110111212121454
:102480001C10000000000000000000000000000020
:10249000000000000000000000000000000000003C
:1024A000000000000000000000000000000000002C
:1024B000000F0F0C0C0F07000F0F000F0F00000F85
:1024C0000F0003070C0C0C07030000000F0F0101A5
:1024D000010E0E00070F0C0C0707000F0F00000F76
:1024E0000F000000000000000000000000000000DD
:1024F00000000000000000000000000000000000DC
:10250000000000000000000000000000000080C08B
:1025100060A0A0A09088888C889090B0A0C0800017
:1025200000000000000000000000000000000000AB
:10253000000000000000404000404040404040405B
:1025400040400000F0FCFC9C9CFCFCFCFCFCFCFC07
:10255000FCFCFCF0F00000000000000000000000A7
:10256000000000000000000000000000000000006B
:1025700000000000000000000000800000000000DB
:10258000000000000000000000000000000000004B
:1025900000000000000000000080000000000000BB
:1025A000000000000000000000000000000000002B
:1025B0000000800000080000080808080808080853
:1025C00000008080FFFFFFFFFFFF7F7F4F4F4F4FD7
:1025D0004F4F0F0F0F000000000000000000000030
:1025E00000000000000000000000000000000000EB
:1025F000000000008080000000FFFFFFFF0000805F
:10260000800000000000FEFEFE0000F0E000000080
:102610000000F0F8F00000FFFFFFFF000080808066
:1026200000000000000000000000000000000000AA
:102630000000FFF8F8E0E0808080C0E0F8F8F8FEE5
:10264000FEFEFFFFFFFFFFFFFFFF18083838000006
:10265000000000000000000000000000000000007A
:10266000000000000000000000000000000000006A
:1026700000000000FFFF010000FFFFFFFF0000FF60
:10268000FF00FCFE0400FFFFFF0C0C8F8300F0F046
:1026900000809F3F7F7070FFFFFFFF000000FFFF83
:1026A000000000000000000000000000000000002A
:1026B000000003070F1F1F7F7FFFFFFFFFFFFFFFCC
:1026C000FFFFFFFFFF7F7F1F1707000000000000D4
:1026D00000000000000000000000000000000000FA
:1026E00000000000000000000000000000000000EA
:1026F000000000000103070707FFFFFFFF030301BE
:10270000000003070E0CFFFFFF00001F3F20FFFF2C
:10271000201F0F00000000FFFFFFFF030303010065
:1027200000000000000000000082828202022222DB
:102730002222020202828200000001FF9F9F0707FF
:1027400001010707FF8080000002020202C20202AC
:1027500002020282828282020232323222020202A9
:102760000200000000000000000000000000000067
:102770000242420202020202000F0F0F0F0001018B
:102780000111110101000F0F0F00013111000F0F96
:10279000000D0D011111101F1F1F1F10000D010151
:1027A000010101010D0D010000000000000000000A
:1027B000000102030406070809000000DC270008E6
:1027C000000000202800000028010008042800085C
:1027D000280000204807000044010008000008000D
:1027E0000000000080000000800000008000000069
:1027F00000000000010000001000000000000000C8
:042800000024F400BC
:04000005080000ED02
:00000001FF
